S0180000426172616D5F4C696E655472616365722E73726563E1
S113000045C000006CC100005EC000005CC0000080
S11300105AC0000058C0000056C0000054C0000080
S113002052C0000050C0000071C100004CC000006C
S11300304AC0000048C0000046C0000044C00000A0
S113004042C0000040C000003EC000003CC00000B0
S11300503AC0000038C0000036C0000034C00000C0
S113006032C0000030C000002EC000002CC00000D0
S11300702AC0000028C0000026C0000024C00000E0
S113008022C0000020C000001EC0000011241FBEBA
S1130090CFEFD0E1DEBFCDBF11E0A0E0B1E0E4E9F5
S11300A0FCE000E00BBF02C007900D92A031B10745
S11300B0D9F721E0A0E1B1E001C01D92A635B20755
S11300C0E1F700D3E5C59CCF88E081BB10929B008B
S11300D088E180939A0086E080939D0010929800B6
S11300E087E6809399000895EBE9F0E0908195FF0D
S11300F0FDCF80939C00089584E085BD80E487BF94
S113010083E884BD089511BA81E089BF82E08093B9
S11301106A0008958FE082B98FEF87BB82EA8FBDB2
S113012089E18EBD87E893E197BD86BD1BBC1ABCEF
S113013019BC18BC0895CF92DF92EF92FF920F93EF
S11301401F93CF93DF936B017C01EA0189011C1695
S11301501D060CF0A3C012161306B4F44630510564
S11301609CF08AE083B98FE599E09BBD8ABD99BD77
S113017088BD2FEF89ED9FE2215080409040E1F748
S113018000C000000FEF1FEFC130D10539F4A70103
S11301909601C701B6013BD36B017C0186E083B9AC
S11301A020E030E040E450E4C701B60194D3882352
S11301B084F420E030E040E450ECC701B601DAD426
S11301C018163CF489EC98E099BD88BD9BBD8ABDA6
S11301D065C020E030E0A901C701B6017CD38823C3
S11301E084F520E030E040EE50E4C701B60173D35B
S11301F0882374F420E030E040EE50ECC701B601EF
S1130200B9D418162CF487E795E099BD88BD02C0CF
S113021019BC18BC20E030E040E751E4C701B60146
S11302205ED32FE135E744E554E4A8D49B01AC0147
S11302306EEA77E782EA94E4E9D2BED37BBD6ABD75
S11302402DC020E030E040EE50E4C701B60143D3B6
S1130250882374F420E030E040EE50ECC701B6018E
S113026089D418162CF487E795E09BBD8ABD02C09B
S11302701BBC1ABC20E030E040E751E4C701B601E2
S11302802ED32FE135E744E554E478D42EEA37E75A
S113029042EA54E4BCD290D379BD68BD80E224DF45
S11302A0CE01D8D0C801DF91CF911F910F91FF905B
S11302B0EF90DF90CF9008951092610087E886B99F
S11302C00895FC0190E0369A97B9349BFECF24B18F
S11302D035B1219331939F5F9830A9F708951F9208
S11302E00F920FB60F9211248F939F9380914E011A
S11302F090914F01019690934F0180934E019F91ED
S11303008F910F900FBE0F901F9018951F920F9210
S11303100FB60F9211242F933F938F939F93809145
S1130320520190915301019690935301809352018D
S113033083E882BF80915201909153010A97C1F5DD
S113034010925301109252018091500190915101E9
S113035001969093510180935001809118019091DE
S113036019018530910574F020914C0130914D01B3
S11303702F5F3F4F30934D0120934C011092510158
S1130380109250010497A4F480914C0190914D0176
S1130390181619066CF410924D0110924C018091BC
S11303A04A0190914B01019690934B0180934A012D
S11303B080914A0190914B010397ACF180915401D3
S11303C090915501019639F41BBC1ABC19BC18BC98
S11303D012B817BA28C086E083B91BBC1ABC19BC72
S11303E018BC8FEF9BE722E9815090402040E1F751
S11303F000C000008DE299E099BD88BD9BBD8ABD17
S11304008FEF94E32CE0815090402040E1F700C04E
S1130410000010924B0110924A0181E090E0909309
S11304205501809354018091500190915101489756
S113043044F0109251011092500110924B0110920D
S11304404A019F918F913F912F910F900FBE0F9072
S11304501F901895AF92BF92CF92DF92EF92FF92C6
S11304600F931F93CF93DF93EC019923DCF48DE278
S11304703BDED195C195D10915C0CE01B801E1D3B8
S1130480C82ED92E80E3860F2FDECC2DDD2DC8019A
S1130490B501D7D38B0181E0E81AF10871F780E246
S11304A023DE0DC00F2EF3E0EF2EF12CF02D04E629
S11304B010E00F2EFAE0AF2EB12CF02DDECFDF913D
S11304C0CF911F910F91FF90EF90DF90CF90BF904D
S11304D0AF9008952F923F926F927F928F929F9246
S11304E0AF92BF92CF92DF92EF92FF920F931F933E
S11304F0CF93DF9300D000D000D0CDB7DEB75A0140
S1130500C62ED72E8C018AE191E09E838D830F2E17
S1130510FAE22F2EF1E03F2EF02D66246394712C25
S1130520F501E190F1905F01F601819091906F01E6
S1130530F801608171816E197F09072E000C880B08
S1130540990B68D269837A838B839C83B4016E1977
S11305507F09072E000C880B990B5CD29B01AC0120
S113056069817A818B819C81BAD120E030E048ECAA
S113057052E404D31CD2F801619371938F01633365
S113058071052CF4ED81FE817182608204C0ED81DD
S1130590FE81118210828D819E8102969E838D83BD
S11305A08215930509F0BCCF26960FB6F894DEBFEA
S11305B00FBECDBFDF91CF911F910F91FF90EF90B0
S11305C0DF90CF90BF90AF909F908F907F906F906F
S11305D03F902F900895CF92DF92EF92FF920F9366
S11305E01F93CF93DF930AE111E0C3E0D0E0C12C65
S11305F0D12C7601F801619171918F010C2E02C00A
S1130600660F771F0A94E2F7072E000C880B990BEC
S113061001D29B01AC01C701B601F8D06B017C018A
S1130620219740F7C0921001D0921101E09212017B
S1130630F092130102E211E0C0E0D0E0C12CD12C11
S11306407601F801619171918F010C2E02C0660F41
S1130650771F0A94E2F7072E000C880B990BDAD166
S11306609B01AC01C701B601D2D06B017C0121967C
S1130670C430D10531F76093140170931501809350
S113068016019093170180E22FDD20911001309123
S11306901101409112015091130160911401709164
S11306A015018091160190911701B1D080D1CB0131
S11306B0D1DEDF91CF911F910F91FF90EF90DF90EA
S11306C0CF9008958FEF8ABBFFDC24DDF5DD1BDDC1
S11306D013DD78940F2EFAE48F2EF1E09F2EF02D87
S11306E0AA24A394B12C0F2EFAE2EF2EF1E0FF2EF0
S11306F0F02D0F2EF5E53F2EF02D0F2EFAE3CF2E21
S1130700F1E0DF2EF02D8AE391E0DBDD80914E01F4
S113071090914F0181309105F9F43BBACAE3D1E0DD
S1130720EAE2F1E0A0E0B1E0899199912081318180
S11307302817390714F4918380832D913C911197E4
S1130740821793071CF411969C938E9332961296FB
S1130750EC15FD0549F754C002970CF451C0C501CE
S1130760F401008002C0880F991F0A94E2F7809573
S11307708BBB40E051E06AE271E08AE391E0AADEDB
S11307801092190110921801CAE1D1E08E018881FA
S1130790805DAADC2296F801008111818091180104
S11307A090911901080F191F109319010093180152
S11307B0CE15DF0559F720911401309115014091B0
S11307C016015091170160911001709111018091EF
S11307D01201909113011BD02B013C0120E030E069
S11307E0A90179D0882361F02091540130915501F9
S11307F0A801C301B2019FDC909355018093540179
S113080080E272DCE8DE8DE06FDC7DCF5058BB27E0
S1130810AA270ED075C166D130F06BD120F031F427
S11308209F3F11F41EF45BC10EF4E095E7FB51C148
S1130830E92F77D180F3BA17620773078407950706
S113084018F071F49EF58FC10EF4E0950B2EBA2FBB
S1130850A02D0B01B90190010C01CA01A0011124C2
S1130860FF27591B99F0593F50F4503E68F11A166E
S1130870F040A22F232F342F4427585FF3CF4695FF
S113088037952795A795F0405395C9F77EF41F1621
S1130890BA0B620B730B840BBAF09150A1F0FF0FEB
S11308A0BB1F661F771F881FC2F70EC0BA0F621FD7
S11308B0731F841F48F4879577956795B795F795C7
S11308C09E3F08F0B3CF9395880F08F09927EE0F59
S11308D0979587950895D9D008F481E008950CD0B0
S11308E00FC107D140F0FED030F021F45F3F19F082
S11308F0F0C0511139C1F3C014D198F39923C9F34D
S11309005523B1F3951B550BBB27AA276217730711
S1130910840738F09F5F5F4F220F331F441FAA1FC5
S1130920A9F333D00E2E3AF0E0E830D09150504085
S1130930E695001CCAF729D0FE2F27D0660F771F33
S1130940881FBB1F261737074807AB07B0E809F015
S1130950BB0B802DBF01FF2793585F4F2AF09E3FAA
S1130960510568F0B6C000C15F3FECF3983EDCF37C
S1130970869577956795B795F7959F5FC9F7880F23
S1130980911D9695879597F90895E1E0660F771F75
S1130990881FBB1F621773078407BA0720F0621B06
S11309A0730B840BBA0BEE1F88F7E095089504D0FF
S11309B06894B111D9C00895BCD088F09F5790F0C5
S11309C0B92F9927B751A0F0D1F0660F771F881F70
S11309D0991F1AF0BA95C9F712C0B13081F0C3D08B
S11309E0B1E00895C0C0672F782F8827B85F39F029
S11309F0B93FCCF3869577956795B395D9F73EF4CF
S1130A0090958095709561957F4F8F4F9F4F089576
S1130A10E89409C097FB3EF4909580957095619594
S1130A207F4F8F4F9F4F9923A9F0F92F96E9BB274A
S1130A309395F695879577956795B795F111F8CFC6
S1130A40FAF4BB0F11F460FF1BC06F5F7F4F8F4F31
S1130A509F4F16C0882311F096E911C0772321F027
S1130A609EE8872F762F05C0662371F096E8862FBF
S1130A7070E060E02AF09A95660F771F881FDAF716
S1130A80880F9695879597F90895990F0008550F43
S1130A90AA0BE0E8FEEF16161706E807F907C0F000
S1130AA012161306E407F50798F0621B730B840B08
S1130AB0950B39F40A2661F0232B242B252B21F4E2
S1130AC008950A2609F4A140A6958FEF811D811D82
S1130AD0089597F99F6780E870E060E008959FEFBC
S1130AE080EC089500240A941616170618060906C1
S1130AF0089500240A941216130614060506089590
S1130B00092E0394000C11F4882352F0BB0F40F417
S1130B10BF2B11F460FF04C06F5F7F4F8F4F9F4F57
S1130B20089557FD9058440F551F59F05F3F71F0D9
S1130B304795880F97FB991F61F09F3F79F0879540
S1130B400895121613061406551FF2CF4695F1DFC9
S1130B5008C0161617061806991FF1CF8695710559
S1130B60610508940895E894BB2766277727CB018D
S1130B7097F908958ADF08F48FEF08950BD0C0CF5A
S1130B80B1DF28F0B6DF18F0952309F0A2CFA7CF84
S1130B901124EACFC6DFA0F3959FD1F3950F50E05F
S1130BA0551F629FF001729FBB27F00DB11D639F1B
S1130BB0AA27F00DB11DAA1F649F6627B00DA11DC1
S1130BC0661F829F2227B00DA11D621F739FB00D67
S1130BD0A11D621F839FA00D611D221F749F3327D7
S1130BE0A00D611D231F849F600D211D822F762F70
S1130BF06A2F11249F5750408AF0E1F088234AF06D
S1130C00EE0FFF1FBB1F661F771F881F91505040B8
S1130C10A9F79E3F510570F05CCFA6CF5F3FECF380
S1130C20983EDCF3869577956795B795F795E795A4
S1130C309F5FC1F7FE2B880F911D9695879597F9B5
S1130C40089597FB072E16F4009406D077FD08D07C
S1130C500BD007FC05D03EF4909581959F4F0895E5
S1130C60709561957F4F0895AA1BBB1B51E107C086
S1130C70AA1FBB1FA617B70710F0A61BB70B881F28
S1130C80991F5A95A9F780959095BC01CD010895B7
S1070C90F894FFCF02
S1130C94FF03FF03FF03FF03FF03FF03FF03FF033C
S9030000FC
